:1000000009C00EC00DC00CC00BC00AC009C008C09A
:1000100007C006C011241FBECFE9CDBF02D05BC010
:10002000EFCF83B78A6083BF8FB583608FBD8FB5F5
:1000300080628FBDB99A8FE286BF99E099BD389AE8
:100040003D9A86B1836886B999BD2FEF30E0EBEE1B
:10005000F0E04FEF82E597E0415080409040E1F7BB
:1000600000C00000369A3699FECF85B190E06FEF60
:1000700070E00CD0BF011BD0CB01992767E270E084
:1000800005D0B90114D0675F69BDE3CF00245527BF
:1000900004C0080E591F880F991F009729F0769504
:1000A0006795B8F37105B9F7802D952F0895AA1BB0
:1000B000BB1B51E107C0AA1FBB1FA617B70710F053
:1000C000A61BB70B881F991F5A95A9F78095909585
:0A00D000BC01CD010895F894FFCFA4
:00000001FF
